:0300000002095999
:0C095900787FE4F6D8FD7581200209A02B
:100D1000C180810A00810B00810100810000810CEB
:010D200000D2
:100C7100D3EF9400EE94004015E4FDFC0DBD00019E
:0E0C81000CED64644C70F5EF1F70E51E80E210
:010C8F002242
:100C9000E4FFC297FED297EF25E0FFA296E4334F20
:080CA000FFC2970EEEB408ED4F
:010CA8002229
:100C5000E4FEC297EFA806088002C333D8FC30E751
:100C600004D2958002C295D2970EEEB408E4C297E2
:010C70002261
:100CA900AC07C2947F02120C50AF04120C50AF056E
:060CB900120C50D294223F
:020CEA00AD0754
:100CEC00C2947F03120C50AF05120C50120C90D210
:010CFC009463
:010CFD0022D4
:0A0D3200C2947FC0120C50D294222C
:10080000E4FF120D327F017E00120C717D037F2AFE
:10081000120CA97D907F29120CA97D027F28120C51
:10082000A97DFF7F31120CA97DEB7F32120CA97DCF
:10083000FF7F33120CA97F34120CA9E4FD7F6112F3
:100840000CA97F62120CA97F63120CA97F64120CA1
:10085000A97D407F60120CA97D087F65120CA97DDF
:10086000FFE4FF120CA97DEB7F01120CA97DFF7F35
:1008700002120CA97F03120CA9E4FD7F20120CA91F
:100880007F21120CA97F22120CA97F23120CA97FB1
:100890002C120CA90D7F2B120CA97D047F0F120CBA
:1008A000A97F0E120CEAEF7E0060047F0180027FB8
:0C08B00000EF4E60077D047F0F120CA9C2
:0108BC002219
:0D09E500787BEBF208EAF208E9F208EDF287
:1009F200E47880F2787EE2FF7880E2C39F506DE473
:100A0200FB7F30120CEAEF30E310EBC39432500A52
:100A12007F017E00120C710B80E7E4787FF2787F11
:100A2200E2FFC39408502FEF2436FF787BE2FB08E5
:100A3200E2FA08E2F97880E2FE04F28E827583001F
:100A42001208D6FD120CA9787FE204F218E2FF78B0
:100A520080E2C39F40C8787FE2FD7F35120CA9C2B5
:0C0A6200947D087F30120CA9D29480888B
:010A6E002265
:0A0B30007872EBF208EAF208E9F22D
:100B3A00E4FC08F27F2C120CEAEF30E02F7F6512FA
:100B4A000CEA7875EFF27875E2FFECC39F501DEC62
:100B5A002466FF120CEA7872E2FB08E2FA08E2F96C
:100B6A008C82758300EF1209370C80DAE4FD7F2C42
:070B7A00120CA97875E2FFDF
:010B81002251
:100D2200758921758C4CE4F58AD28CD2A9D2AF2276
:03000B00020C19CB
:100C1900C0E0C0D075D000C000C007780AE2D39404
:100C2900004015E214F2E2700F7801E2FF780BE25E
:100C39006F600578007401F2758C4C758A00D007D5
:070C4900D000D0D0D0E03252
:090D3C00D2BAD28AD2AAD2AF22A7
:03001300020CD507
:100CD500C0E0C0D075D000C000780C7401F2D0001F
:050CE500D0D0D0E03288
:100CBF0075985053877F438921758BFD758DFDD2B4
:060CCF008ED2ACD2AF2270
:100CFE0074011209031208BDC394644004E412097E
:020D0E0025229C
:03002300020AD3FB
:100AD300C0E0C083C082C0D075D000C000C001C0D8
:050AE30002C003C00782
:100AE80030982BC298AF99780BE2240DF8EFF27B7F
:100AF800FE7A00790B120CFE7801E2FF780BE2B562
:100B080007077A007901120CFE780A7414F23099FA
:050B180004C299C200B7
:100B1D00D007D003D002D001D000D0D0D082D08366
:030B2D00D0E032E3
:080D45002000FDD2008F99226D
:100BD3007872EBF208EAF208E9F208ECF2FE08EDAB
:020BE300F2FF1F
:100BE500E4FDFCD3EF9400EE940040277872E2FB1D
:100BF50008E2FA08E2F90DEDAE0470010C14F58275
:100C05008E831208D6FF120D45D37876E29D18E241
:030C15009C50D917
:010C180022B9
:100A6F00E47872F2780BE2FDFE7801E2FCEDC39CB4
:100A7F00500474642EFEC3EE9CFDC39408400778A7
:100A8F00727408F2800F7800E2640170367872EDAC
:100A9F00F2E47800F2E4FF7872E2FDEFC39D501AA2
:100AAF007801E2240DF8E2FE74732FF8EEF27BFE6C
:100ABF007A007901120CFE0F80DD7BFE7A007973CC
:030ACF001209E524
:010AD2002201
:100B8200120D22120CBF120D3C1208007801E2FF76
:100B9200780BE26F6005120A6F80087800E2B401F8
:0F0BA20002E4F2780CE264016005E5B020E3DDC7
:100BB100E4780CF27BFE7A007902120B307871EF47
:100BC100F260E17BFE7A007902E2FD7C00120BD338
:020BD10080D2D0
:10096500020B82E493A3F8E493A34003F68001F21B
:1009750008DFF48029E493A3F85407240CC8C33393
:10098500C4540F4420C8834004F456800146F6DF62
:10099500E4800B0102040810204080900D10E47ED5
:1009A500019360BCA3FF543F30E509541FFEE49357
:1009B500A360010ECF54C025E060A840B8E493A31E
:1009C500FAE493A3F8E493A3C8C582C8CAC583CA49
:1009D500F0A3C8C582C8CAC583CADFE9DEE780BE01
:010D210000D1
:1008BD00BB010689828A83E0225002E722BBFE0239
:0908CD00E32289828A83E493226C
:1008D600BB010CE58229F582E5833AF583E02250D7
:1008E60006E92582F8E622BBFE06E92582F8E22221
:0D08F600E58229F582E5833AF583E493223B
:10090300BB010989828A83F8E028F022500327F784
:1009130022BBFE05F8E328F3228A838982F8E49355
:02092300282288
:10092500BB010689828A83F0225002F722BBFE01B1
:02093500F322AB
:10093700F8BB010DE58229F582E5833AF583E8F0F6
:10094700225006E92582C8F622BBFE05E92582C8A2
:02095700F2228A
:00000001FF
