:03000000020800F3
:0300230002098D42
:10080000787FE4F6D8FD7581100208470208B3E44A
:1008100093A3F8E493A34003F68001F208DFF48089
:1008200029E493A3F85407240CC8C333C4540F44D9
:1008300020C8834004F456800146F6DFE4800B01B3
:1008400002040810204080900982E47E019360BC7D
:10085000A3FF543F30E509541FFEE493A360010E4B
:10086000CF54C025E060A840B8E493A3FAE493A372
:10087000F8E493A3C8C582C8CAC583CAF0A3C8C593
:1008800082C8CAC583CADFE9DEE780BEAA07E4FBE7
:10089000F51012095A7FA01208FC12095A7FA11202
:1008A00008D912090712091BAB07120907120949D7
:1008B000AF0322E4F97F64FE120977120934E4F9E8
:1008C000AF0112088C74082FF8E6F5997F507EC3AB
:1008D00012097709B908E980E5AD07E4FBC2B61251
:1008E0000970ED30E704D2B78002C2B7D2B6120960
:1008F00070ED25E0FD0BBB08E4C2B6221208D91248
:100900000907AF021208D9E4FDD2B712096920B76E
:10091000030D8002E4FDC2B6AF0522E4FDFBED2528
:10092000E0FD12096930B7034305010BBB08EFC2B4
:10093000B6AF052275985053877F438920758BFD8C
:10094000758DFD75A890D28E22C2B6120970C2B7FD
:10095000D2B6120970D2B7020970D2B7D2B6120954
:1009600070C2B7120970C2B622C2B6120970D2B6EE
:100970007F017E00020977EF1FAC0670011E4C70EC
:10098000F622080848656C6C6F210D0A0030990248
:03099000C29932D7
:00000001FF
